{
    "contractName": "Bank",
    "abi": [
        {
            "inputs": [],
            "stateMutability": "nonpayable",
            "type": "constructor"
        },
        {
            "inputs": [
                {
                    "internalType": "int256",
                    "name": "amt",
                    "type": "int256"
                }
            ],
            "name": "deposit",
            "outputs": [],
            "stateMutability": "nonpayable",
            "type": "function"
        },
        {
            "inputs": [],
            "name": "getBalance",
            "outputs": [
                {
                    "internalType": "int256",
                    "name": "",
                    "type": "int256"
                }
            ],
            "stateMutability": "view",
            "type": "function"
        },
        {
            "inputs": [
                {
                    "internalType": "int256",
                    "name": "amt",
                    "type": "int256"
                }
            ],
            "name": "withdraw",
            "outputs": [],
            "stateMutability": "nonpayable",
            "type": "function"
        }
    ],
    "bytecode": "608060405234801561001057600080fd5b506001600055610159806100256000396000f3fe608060405234801561001057600080fd5b50600436106100415760003560e01c806312065fe0146100465780637e62eab81461005b578063f04991f014610070575b600080fd5b60005460405190815260200160405180910390f35b61006e6100693660046100a5565b610083565b005b61006e61007e3660046100a5565b610097565b8060005461009191906100d4565b60005550565b8060005461009191906100fb565b6000602082840312156100b757600080fd5b5035919050565b634e487b7160e01b600052601160045260246000fd5b81810360008312801583831316838312821617156100f4576100f46100be565b5092915050565b808201828112600083128015821682158216171561011b5761011b6100be565b50509291505056fea26469706673582212201c3d01845ec83c147ce046c25bc99585261d3796b653c85221bbd16f0291e6ef64736f6c63430008110033",
    "sourcePath": "c:/Users/L470_2/Downloads/lp3/BT2.sol",
    "compiler": {
        "name": "solc",
        "version": "0.8.17+commit.8df45f5f"
    },
    "functionHashes": {
        "deposit(int256)": "f04991f0",
        "getBalance()": "12065fe0",
        "withdraw(int256)": "7e62eab8"
    },
    "gasEstimates": {
        "creation": {
            "codeDepositCost": "69000",
            "executionCost": "22223",
            "totalCost": "91223"
        },
        "external": {
            "deposit(int256)": "24569",
            "getBalance()": "2246",
            "withdraw(int256)": "24545"
        }
    }
}