{
    "contractName": "StudentManagmtSys",
    "abi": [
        {
            "inputs": [],
            "stateMutability": "nonpayable",
            "type": "constructor"
        },
        {
            "inputs": [
                {
                    "internalType": "int256",
                    "name": "_ID",
                    "type": "int256"
                },
                {
                    "internalType": "string",
                    "name": "_fName",
                    "type": "string"
                },
                {
                    "internalType": "string",
                    "name": "_lName",
                    "type": "string"
                },
                {
                    "internalType": "int256",
                    "name": "_marks",
                    "type": "int256"
                }
            ],
            "name": "addNewRecords",
            "outputs": [],
            "stateMutability": "nonpayable",
            "type": "function"
        },
        {
            "inputs": [
                {
                    "internalType": "uint256",
                    "name": "",
                    "type": "uint256"
                }
            ],
            "name": "data",
            "outputs": [
                {
                    "internalType": "int256",
                    "name": "ID",
                    "type": "int256"
                },
                {
                    "internalType": "string",
                    "name": "fName",
                    "type": "string"
                },
                {
                    "internalType": "string",
                    "name": "lName",
                    "type": "string"
                },
                {
                    "internalType": "int256",
                    "name": "marks",
                    "type": "int256"
                }
            ],
            "stateMutability": "view",
            "type": "function"
        },
        {
            "inputs": [],
            "name": "total",
            "outputs": [
                {
                    "internalType": "uint256",
                    "name": "",
                    "type": "uint256"
                }
            ],
            "stateMutability": "view",
            "type": "function"
        }
    ],
    "bytecode": "608060405234801561001057600080fd5b50600080546001600160a01b031916331790556105f1806100326000396000f3fe608060405234801561001057600080fd5b50600436106100415760003560e01c80632ddbd13a146100465780639e676bcf14610062578063f0ba844014610077575b600080fd5b61004f60025481565b6040519081526020015b60405180910390f35b610075610070366004610361565b61009a565b005b61008a6100853660046103d6565b610172565b6040516100599493929190610435565b6000546001600160a01b031633146100b157600080fd5b604080516080810182528581526020810185815291810184905260608101839052600180548082018255600091909152815160049091027fb10e2d527612073b26eecdfd717e6a320cf44b4afac2b0732d9fcbe2b7fa0cf681019182559251919290917fb10e2d527612073b26eecdfd717e6a320cf44b4afac2b0732d9fcbe2b7fa0cf79091019061014390826104fb565b506040820151600282019061015890826104fb565b506060919091015160039091015550506001546002555050565b6001818154811061018257600080fd5b600091825260209091206004909102018054600182018054919350906101a790610472565b80601f01602080910402602001604051908101604052809291908181526020018280546101d390610472565b80156102205780601f106101f557610100808354040283529160200191610220565b820191906000526020600020905b81548152906001019060200180831161020357829003601f168201915b50505050509080600201805461023590610472565b80601f016020809104026020016040519081016040528092919081815260200182805461026190610472565b80156102ae5780601f10610283576101008083540402835291602001916102ae565b820191906000526020600020905b81548152906001019060200180831161029157829003601f168201915b5050505050908060030154905084565b634e487b7160e01b600052604160045260246000fd5b600082601f8301126102e557600080fd5b813567ffffffffffffffff80821115610300576103006102be565b604051601f8301601f19908116603f01168101908282118183101715610328576103286102be565b8160405283815286602085880101111561034157600080fd5b836020870160208301376000602085830101528094505050505092915050565b6000806000806080858703121561037757600080fd5b84359350602085013567ffffffffffffffff8082111561039657600080fd5b6103a2888389016102d4565b945060408701359150808211156103b857600080fd5b506103c5878288016102d4565b949793965093946060013593505050565b6000602082840312156103e857600080fd5b5035919050565b6000815180845260005b81811015610415576020818501810151868301820152016103f9565b506000602082860101526020601f19601f83011685010191505092915050565b84815260806020820152600061044e60808301866103ef565b828103604084015261046081866103ef565b91505082606083015295945050505050565b600181811c9082168061048657607f821691505b6020821081036104a657634e487b7160e01b600052602260045260246000fd5b50919050565b601f8211156104f657600081815260208120601f850160051c810160208610156104d35750805b601f850160051c820191505b818110156104f2578281556001016104df565b5050505b505050565b815167ffffffffffffffff811115610515576105156102be565b610529816105238454610472565b846104ac565b602080601f83116001811461055e57600084156105465750858301515b600019600386901b1c1916600185901b1785556104f2565b600085815260208120601f198616915b8281101561058d5788860151825594840194600190910190840161056e565b50858210156105ab5787850151600019600388901b60f8161c191681555b5050505050600190811b0190555056fea2646970667358221220235271fead3617bf37ed66f59325a93e21d068190b72df30f1a63ecc4c2e097164736f6c63430008110033",
    "sourcePath": "c:/Users/L470_2/Downloads/lp3/BT3.sol",
    "compiler": {
        "name": "solc",
        "version": "0.8.17+commit.8df45f5f"
    },
    "functionHashes": {
        "addNewRecords(int256,string,string,int256)": "9e676bcf",
        "data(uint256)": "f0ba8440",
        "total()": "2ddbd13a"
    },
    "gasEstimates": {
        "creation": {
            "codeDepositCost": "304200",
            "executionCost": "24578",
            "totalCost": "328778"
        },
        "external": {
            "addNewRecords(int256,string,string,int256)": "infinite",
            "data(uint256)": "infinite",
            "total()": "2262"
        }
    }
}